{
  "_format": "hh-sol-artifact-1",
  "contractName": "Parkade",
  "sourceName": "contracts/Parkade.sol",
  "abi": [
    {
      "anonymous": false,
      "inputs": [
        {
          "indexed": true,
          "internalType": "bytes32",
          "name": "reservationId",
          "type": "bytes32"
        },
        {
          "indexed": true,
          "internalType": "address",
          "name": "user",
          "type": "address"
        },
        {
          "indexed": false,
          "internalType": "uint256",
          "name": "startTime",
          "type": "uint256"
        },
        {
          "indexed": false,
          "internalType": "uint256",
          "name": "endTime",
          "type": "uint256"
        },
        {
          "indexed": false,
          "internalType": "uint256",
          "name": "amount",
          "type": "uint256"
        },
        {
          "indexed": false,
          "internalType": "bool",
          "name": "paid",
          "type": "bool"
        },
        {
          "indexed": false,
          "internalType": "address",
          "name": "ownerAddress",
          "type": "address"
        }
      ],
      "name": "Rsvp",
      "type": "event"
    },
    {
      "inputs": [
        {
          "internalType": "uint256",
          "name": "_hourlyRate",
          "type": "uint256"
        },
        {
          "internalType": "uint256",
          "name": "_startTime",
          "type": "uint256"
        },
        {
          "internalType": "uint256",
          "name": "_endTime",
          "type": "uint256"
        },
        {
          "internalType": "address payable",
          "name": "_ownerAddress",
          "type": "address"
        }
      ],
      "name": "MakeReservation",
      "outputs": [],
      "stateMutability": "payable",
      "type": "function"
    },
    {
      "inputs": [
        {
          "internalType": "bytes32",
          "name": "",
          "type": "bytes32"
        }
      ],
      "name": "reservations",
      "outputs": [
        {
          "internalType": "uint256",
          "name": "hourlyRate",
          "type": "uint256"
        },
        {
          "internalType": "uint256",
          "name": "startTime",
          "type": "uint256"
        },
        {
          "internalType": "uint256",
          "name": "endTime",
          "type": "uint256"
        },
        {
          "internalType": "bool",
          "name": "paid",
          "type": "bool"
        },
        {
          "internalType": "address",
          "name": "ownerAddress",
          "type": "address"
        }
      ],
      "stateMutability": "view",
      "type": "function"
    },
    {
      "stateMutability": "payable",
      "type": "receive"
    }
  ],
  "bytecode": "0x608060405234801561001057600080fd5b5061048c806100206000396000f3fe60806040526004361061002d5760003560e01c8063a1b416f914610039578063a9ee652d146100c557600080fd5b3661003457005b600080fd5b34801561004557600080fd5b5061008e6100543660046103a4565b60006020819052908152604090208054600182015460028301546003909301549192909160ff81169061010090046001600160a01b031685565b60408051958652602086019490945292840191909152151560608301526001600160a01b0316608082015260a00160405180910390f35b6100d86100d33660046103bd565b6100da565b005b6000841161013d5760405162461bcd60e51b815260206004820152602560248201527f486f75726c792072617465206d7573742062652067726561746572207468616e604482015264207a65726f60d81b60648201526084015b60405180910390fd5b82821161019d5760405162461bcd60e51b815260206004820152602860248201527f456e642074696d65206d7573742062652067726561746572207468616e2073746044820152676172742074696d6560c01b6064820152608401610134565b6001600160a01b0381166101eb5760405162461bcd60e51b8152602060048201526015602482015274496e76616c6964206f776e6572206164647265737360581b6044820152606401610134565b60006101f78484610420565b905060006102058287610437565b90508034101561024e5760405162461bcd60e51b8152602060048201526014602482015273125b9cdd59999a58da595b9d081c185e5b595b9d60621b6044820152606401610134565b6040516bffffffffffffffffffffffff193360601b16602082015242603482015260009060540160408051808303601f19018152828252805160209182012060a080850184528b85528285018b81528585018b8152600160608089018281526001600160a01b038e81166080808d0182815260008b8152808d528d90208e5181559851898801559651600289015592516003909701805496516001600160a81b0319909716971515610100600160a81b0319169790971761010096909216959095021790945587518f81529687018e90529686018a9052958501959095528301939093529350339184917facd9c2207f70cb6b42a342a09f386b9d94634bfe8c599b30f444b4a09759a585910160405180910390a36040516001600160a01b0386169084156108fc029085906000818181858888f19350505050158015610399573d6000803e3d6000fd5b505050505050505050565b6000602082840312156103b657600080fd5b5035919050565b600080600080608085870312156103d357600080fd5b84359350602085013592506040850135915060608501356001600160a01b03811681146103ff57600080fd5b939692955090935050565b634e487b7160e01b600052601160045260246000fd5b6000828210156104325761043261040a565b500390565b60008160001904831182151516156104515761045161040a565b50029056fea2646970667358221220ec3d57fa93e26e5800099f14907325b01d9b09afc644376fe4e5fb6f735556b564736f6c63430008090033",
  "linkReferences": {},
  "deployedLinkReferences": {}
}