{
  "_format": "hh-sol-artifact-1",
  "contractName": "Parkade",
  "sourceName": "contracts/Parkade.sol",
  "abi": [
    {
      "anonymous": false,
      "inputs": [
        {
          "indexed": true,
          "internalType": "bytes32",
          "name": "reservationId",
          "type": "bytes32"
        },
        {
          "indexed": true,
          "internalType": "address",
          "name": "user",
          "type": "address"
        },
        {
          "indexed": false,
          "internalType": "uint256",
          "name": "startTime",
          "type": "uint256"
        },
        {
          "indexed": false,
          "internalType": "uint256",
          "name": "endTime",
          "type": "uint256"
        },
        {
          "indexed": false,
          "internalType": "bool",
          "name": "paid",
          "type": "bool"
        },
        {
          "indexed": false,
          "internalType": "address",
          "name": "ownerAddress",
          "type": "address"
        }
      ],
      "name": "Rsvp",
      "type": "event"
    },
    {
      "inputs": [
        {
          "internalType": "uint256",
          "name": "_startTime",
          "type": "uint256"
        },
        {
          "internalType": "uint256",
          "name": "_endTime",
          "type": "uint256"
        },
        {
          "internalType": "address payable",
          "name": "_ownerAddress",
          "type": "address"
        }
      ],
      "name": "makeReservation",
      "outputs": [],
      "stateMutability": "payable",
      "type": "function"
    },
    {
      "inputs": [
        {
          "internalType": "bytes32",
          "name": "",
          "type": "bytes32"
        }
      ],
      "name": "reservations",
      "outputs": [
        {
          "internalType": "uint256",
          "name": "startTime",
          "type": "uint256"
        },
        {
          "internalType": "uint256",
          "name": "endTime",
          "type": "uint256"
        },
        {
          "internalType": "bool",
          "name": "paid",
          "type": "bool"
        },
        {
          "internalType": "address",
          "name": "ownerAddress",
          "type": "address"
        }
      ],
      "stateMutability": "view",
      "type": "function"
    },
    {
      "stateMutability": "payable",
      "type": "receive"
    }
  ],
  "bytecode": "0x608060405234801561001057600080fd5b50610300806100206000396000f3fe60806040526004361061002d5760003560e01c80639d307f5e14610039578063a1b416f91461004e57600080fd5b3661003457005b600080fd5b61004c61004736600461026c565b6100cc565b005b34801561005a57600080fd5b5061009d6100693660046102b1565b60006020819052908152604090208054600182015460029092015490919060ff81169061010090046001600160a01b031684565b604080519485526020850193909352901515838301526001600160a01b03166060830152519081900360800190f35b8282116101305760405162461bcd60e51b815260206004820152602860248201527f456e642074696d65206d7573742062652067726561746572207468616e2073746044820152676172742074696d6560c01b606482015260840160405180910390fd5b6040516bffffffffffffffffffffffff193360601b16602082015242603482015260009060540160408051601f1981840301815282825280516020918201206080808501845288855282850188815260018686018181526001600160a01b038a81166060808b018281526000898152808b528b90208c518155965187870155935160029096018054945190931661010002610100600160a81b0319961515969096166001600160a81b03199094169390931794909417905586518c81529586018b905295850152938301939093529350339184917f75e4588a879e0a09d6cabdbf666c19f651c0242b014297183ec0b115c0e6c469910160405180910390a36040516001600160a01b038416903480156108fc02916000818181858888f19350505050158015610264573d6000803e3d6000fd5b505050505050565b60008060006060848603121561028157600080fd5b833592506020840135915060408401356001600160a01b03811681146102a657600080fd5b809150509250925092565b6000602082840312156102c357600080fd5b503591905056fea26469706673582212200e56bac3e305d39e939fbc8adb360bcc71a9ff8ea93dc38400ffa2664e62b99164736f6c63430008090033",
  "linkReferences": {},
  "deployedLinkReferences": {}
}