{
  "_format": "hh-sol-artifact-1",
  "contractName": "Parkade",
  "sourceName": "contracts/Parkade.sol",
  "abi": [
    {
      "anonymous": false,
      "inputs": [
        {
          "indexed": true,
          "internalType": "bytes32",
          "name": "reservationId",
          "type": "bytes32"
        },
        {
          "indexed": true,
          "internalType": "address",
          "name": "user",
          "type": "address"
        },
        {
          "indexed": false,
          "internalType": "uint256",
          "name": "startTime",
          "type": "uint256"
        },
        {
          "indexed": false,
          "internalType": "uint256",
          "name": "endTime",
          "type": "uint256"
        },
        {
          "indexed": false,
          "internalType": "uint256",
          "name": "amount",
          "type": "uint256"
        },
        {
          "indexed": false,
          "internalType": "bool",
          "name": "paid",
          "type": "bool"
        }
      ],
      "name": "Rsvp",
      "type": "event"
    },
    {
      "inputs": [
        {
          "internalType": "uint256",
          "name": "_hourlyRate",
          "type": "uint256"
        },
        {
          "internalType": "uint256",
          "name": "_startTime",
          "type": "uint256"
        },
        {
          "internalType": "uint256",
          "name": "_endTime",
          "type": "uint256"
        }
      ],
      "name": "MakeReservation",
      "outputs": [],
      "stateMutability": "payable",
      "type": "function"
    },
    {
      "inputs": [
        {
          "internalType": "bytes32",
          "name": "",
          "type": "bytes32"
        }
      ],
      "name": "reservations",
      "outputs": [
        {
          "internalType": "uint256",
          "name": "hourlyRate",
          "type": "uint256"
        },
        {
          "internalType": "uint256",
          "name": "startTime",
          "type": "uint256"
        },
        {
          "internalType": "uint256",
          "name": "endTime",
          "type": "uint256"
        },
        {
          "internalType": "bool",
          "name": "paid",
          "type": "bool"
        }
      ],
      "stateMutability": "view",
      "type": "function"
    },
    {
      "stateMutability": "payable",
      "type": "receive"
    }
  ],
  "bytecode": "0x608060405234801561001057600080fd5b506103bb806100206000396000f3fe60806040526004361061002d5760003560e01c8063649acd7f14610039578063a1b416f91461004e57600080fd5b3661003457005b600080fd5b61004c6100473660046102f4565b6100b9565b005b34801561005a57600080fd5b50610093610069366004610320565b60006020819052908152604090208054600182015460028301546003909301549192909160ff1684565b604080519485526020850193909352918301521515606082015260800160405180910390f35b6000831161011c5760405162461bcd60e51b815260206004820152602560248201527f486f75726c792072617465206d7573742062652067726561746572207468616e604482015264207a65726f60d81b60648201526084015b60405180910390fd5b81811161017c5760405162461bcd60e51b815260206004820152602860248201527f456e642074696d65206d7573742062652067726561746572207468616e2073746044820152676172742074696d6560c01b6064820152608401610113565b6000610188838361034f565b905060006101968286610366565b9050803410156101df5760405162461bcd60e51b8152602060048201526014602482015273125b9cdd59999a58da595b9d081c185e5b595b9d60621b6044820152606401610113565b6040516bffffffffffffffffffffffff193360601b16602082015242603482015260009060540160408051808303601f190181528282528051602091820120608080850184528a85528285018a81528585018a81526001606080890182815260008781528089528990208a5181559451858401559251600285015591516003909301805460ff19169315159390931790925585518c81529485018b9052948401889052938301939093529350339184917f3910679f119c398fe8799467a2be3deab3928fee806bb07b324268ceeb93205e910160405180910390a36040513090819085156108fc029086906000818181858888f193505050501580156102e9573d6000803e3d6000fd5b505050505050505050565b60008060006060848603121561030957600080fd5b505081359360208301359350604090920135919050565b60006020828403121561033257600080fd5b5035919050565b634e487b7160e01b600052601160045260246000fd5b60008282101561036157610361610339565b500390565b600081600019048311821515161561038057610380610339565b50029056fea2646970667358221220c998a1a2408814aad3acc547fb50ede77a73067fee305a4edd42a954f586bfa064736f6c63430008090033",
  "linkReferences": {},
  "deployedLinkReferences": {}
}