{
  "_format": "hh-sol-artifact-1",
  "contractName": "Parkade",
  "sourceName": "contracts/Parkade.sol",
  "abi": [
    {
      "anonymous": false,
      "inputs": [
        {
          "indexed": true,
          "internalType": "address",
          "name": "user",
          "type": "address"
        },
        {
          "indexed": false,
          "internalType": "uint256",
          "name": "amount",
          "type": "uint256"
        }
      ],
      "name": "PaymentReceived",
      "type": "event"
    },
    {
      "anonymous": false,
      "inputs": [
        {
          "indexed": true,
          "internalType": "uint256",
          "name": "reservationId",
          "type": "uint256"
        },
        {
          "indexed": true,
          "internalType": "address",
          "name": "user",
          "type": "address"
        },
        {
          "indexed": true,
          "internalType": "uint256",
          "name": "startTime",
          "type": "uint256"
        },
        {
          "indexed": false,
          "internalType": "uint256",
          "name": "endTime",
          "type": "uint256"
        }
      ],
      "name": "ReservationStored",
      "type": "event"
    },
    {
      "inputs": [
        {
          "internalType": "uint256",
          "name": "_reservationId",
          "type": "uint256"
        }
      ],
      "name": "makeReservation",
      "outputs": [],
      "stateMutability": "payable",
      "type": "function"
    },
    {
      "inputs": [
        {
          "internalType": "uint256",
          "name": "",
          "type": "uint256"
        }
      ],
      "name": "reservations",
      "outputs": [
        {
          "internalType": "uint256",
          "name": "hourlyRate",
          "type": "uint256"
        },
        {
          "internalType": "uint256",
          "name": "startTime",
          "type": "uint256"
        },
        {
          "internalType": "uint256",
          "name": "endTime",
          "type": "uint256"
        },
        {
          "internalType": "bool",
          "name": "paid",
          "type": "bool"
        }
      ],
      "stateMutability": "view",
      "type": "function"
    },
    {
      "inputs": [
        {
          "internalType": "uint256",
          "name": "_hourlyRate",
          "type": "uint256"
        },
        {
          "internalType": "uint256",
          "name": "_startTime",
          "type": "uint256"
        },
        {
          "internalType": "uint256",
          "name": "_endTime",
          "type": "uint256"
        }
      ],
      "name": "storeReservation",
      "outputs": [],
      "stateMutability": "nonpayable",
      "type": "function"
    },
    {
      "stateMutability": "payable",
      "type": "receive"
    }
  ],
  "bytecode": "0x608060405234801561001057600080fd5b5061057c806100206000396000f3fe6080604052600436106100385760003560e01c8063067cf83214610044578063bd10cb1a1461008a578063e747e79c146100ac57600080fd5b3661003f57005b600080fd5b34801561005057600080fd5b5061006461005f36600461049f565b6100bf565b604080519485526020850193909352918301521515606082015260800160405180910390f35b34801561009657600080fd5b506100aa6100a53660046104b8565b6100fc565b005b6100aa6100ba36600461049f565b6102e4565b600081815481106100cf57600080fd5b60009182526020909120600490910201805460018201546002830154600390930154919350919060ff1684565b6000831161015f5760405162461bcd60e51b815260206004820152602560248201527f486f75726c792072617465206d7573742062652067726561746572207468616e604482015264207a65726f60d81b60648201526084015b60405180910390fd5b8181116101bf5760405162461bcd60e51b815260206004820152602860248201527f456e642074696d65206d7573742062652067726561746572207468616e2073746044820152676172742074696d6560c01b6064820152608401610156565b604080516080810182528481526020810184815291810183815260006060830181815281546001808201845583805285517f290decd9548b62a8d60345a988386fc84ba6bc95484008f6362f93160ef3e56360049093029283015595517f290decd9548b62a8d60345a988386fc84ba6bc95484008f6362f93160ef3e56482015592517f290decd9548b62a8d60345a988386fc84ba6bc95484008f6362f93160ef3e565840155517f290decd9548b62a8d60345a988386fc84ba6bc95484008f6362f93160ef3e566909201805460ff191692151592909217909155549091849133916102ab916104fa565b6040518581527f6fdbef1b9d9443c06018a62a9b2c255cbbe22b46a4f716e9048249d3ffbd321b9060200160405180910390a450505050565b600054811061032e5760405162461bcd60e51b8152602060048201526016602482015275125b9d985b1a59081c995cd95c9d985d1a5bdb88125160521b6044820152606401610156565b600080828154811061034257610342610511565b60009182526020909120600490910201600381015490915060ff16156103aa5760405162461bcd60e51b815260206004820152601860248201527f5265736572766174696f6e20616c7265616479207061696400000000000000006044820152606401610156565b6000816001015482600201546103c091906104fa565b905060008183600001546103d49190610527565b90508034101561041d5760405162461bcd60e51b8152602060048201526014602482015273125b9cdd59999a58da595b9d081c185e5b595b9d60621b6044820152606401610156565b60038301805460ff1916600117905560405133907f6ef95f06320e7a25a04a175ca677b7052bdd97131872c2192525a629f51be770906104609084815260200190565b60405180910390a26040513090819083156108fc029084906000818181858888f19350505050158015610497573d6000803e3d6000fd5b505050505050565b6000602082840312156104b157600080fd5b5035919050565b6000806000606084860312156104cd57600080fd5b505081359360208301359350604090920135919050565b634e487b7160e01b600052601160045260246000fd5b60008282101561050c5761050c6104e4565b500390565b634e487b7160e01b600052603260045260246000fd5b6000816000190483118215151615610541576105416104e4565b50029056fea2646970667358221220000d437960e920c1d866399da1e7e17386ac1965c03a54404544305a2dda5c8264736f6c63430008090033",
  "linkReferences": {},
  "deployedLinkReferences": {}
}